{
  "address": "0x796fa16c03112F665dd895b4b2023de0aFe4cdb8",
  "abi": [
    {
      "inputs": [
        {
          "internalType": "string",
          "name": "_uri",
          "type": "string"
        }
      ],
      "stateMutability": "nonpayable",
      "type": "constructor"
    },
    {
      "inputs": [],
      "name": "EstatePool__TransactionFailed",
      "type": "error"
    },
    {
      "anonymous": false,
      "inputs": [
        {
          "indexed": true,
          "internalType": "address",
          "name": "account",
          "type": "address"
        },
        {
          "indexed": true,
          "internalType": "address",
          "name": "operator",
          "type": "address"
        },
        {
          "indexed": false,
          "internalType": "bool",
          "name": "approved",
          "type": "bool"
        }
      ],
      "name": "ApprovalForAll",
      "type": "event"
    },
    {
      "anonymous": false,
      "inputs": [
        {
          "indexed": true,
          "internalType": "address",
          "name": "creator",
          "type": "address"
        },
        {
          "indexed": true,
          "internalType": "uint256",
          "name": "tokenId",
          "type": "uint256"
        },
        {
          "indexed": false,
          "internalType": "uint256",
          "name": "amount",
          "type": "uint256"
        }
      ],
      "name": "AuctionCreated",
      "type": "event"
    },
    {
      "anonymous": false,
      "inputs": [
        {
          "indexed": true,
          "internalType": "address",
          "name": "from",
          "type": "address"
        },
        {
          "indexed": true,
          "internalType": "address",
          "name": "to",
          "type": "address"
        },
        {
          "indexed": true,
          "internalType": "uint256",
          "name": "tokenid",
          "type": "uint256"
        }
      ],
      "name": "TokenBought",
      "type": "event"
    },
    {
      "anonymous": false,
      "inputs": [
        {
          "indexed": true,
          "internalType": "address",
          "name": "owner",
          "type": "address"
        },
        {
          "indexed": true,
          "internalType": "string",
          "name": "name",
          "type": "string"
        },
        {
          "indexed": true,
          "internalType": "uint256",
          "name": "id",
          "type": "uint256"
        }
      ],
      "name": "TokenListed",
      "type": "event"
    },
    {
      "anonymous": false,
      "inputs": [
        {
          "indexed": true,
          "internalType": "address",
          "name": "operator",
          "type": "address"
        },
        {
          "indexed": true,
          "internalType": "address",
          "name": "from",
          "type": "address"
        },
        {
          "indexed": true,
          "internalType": "address",
          "name": "to",
          "type": "address"
        },
        {
          "indexed": false,
          "internalType": "uint256[]",
          "name": "ids",
          "type": "uint256[]"
        },
        {
          "indexed": false,
          "internalType": "uint256[]",
          "name": "values",
          "type": "uint256[]"
        }
      ],
      "name": "TransferBatch",
      "type": "event"
    },
    {
      "anonymous": false,
      "inputs": [
        {
          "indexed": true,
          "internalType": "address",
          "name": "operator",
          "type": "address"
        },
        {
          "indexed": true,
          "internalType": "address",
          "name": "from",
          "type": "address"
        },
        {
          "indexed": true,
          "internalType": "address",
          "name": "to",
          "type": "address"
        },
        {
          "indexed": false,
          "internalType": "uint256",
          "name": "id",
          "type": "uint256"
        },
        {
          "indexed": false,
          "internalType": "uint256",
          "name": "value",
          "type": "uint256"
        }
      ],
      "name": "TransferSingle",
      "type": "event"
    },
    {
      "anonymous": false,
      "inputs": [
        {
          "indexed": false,
          "internalType": "string",
          "name": "value",
          "type": "string"
        },
        {
          "indexed": true,
          "internalType": "uint256",
          "name": "id",
          "type": "uint256"
        }
      ],
      "name": "URI",
      "type": "event"
    },
    {
      "inputs": [
        {
          "internalType": "uint256",
          "name": "tokenId",
          "type": "uint256"
        },
        {
          "internalType": "uint256",
          "name": "amount",
          "type": "uint256"
        }
      ],
      "name": "AuctionAsset",
      "outputs": [
        {
          "internalType": "bool",
          "name": "",
          "type": "bool"
        },
        {
          "internalType": "uint256",
          "name": "",
          "type": "uint256"
        }
      ],
      "stateMutability": "nonpayable",
      "type": "function"
    },
    {
      "inputs": [
        {
          "internalType": "uint256",
          "name": "tokenId",
          "type": "uint256"
        },
        {
          "internalType": "uint256",
          "name": "purchaseAmt",
          "type": "uint256"
        },
        {
          "internalType": "uint256",
          "name": "expectedPay",
          "type": "uint256"
        }
      ],
      "name": "BuyPlot",
      "outputs": [
        {
          "internalType": "uint256",
          "name": "Id",
          "type": "uint256"
        },
        {
          "internalType": "uint256",
          "name": "amountBought",
          "type": "uint256"
        }
      ],
      "stateMutability": "payable",
      "type": "function"
    },
    {
      "inputs": [
        {
          "internalType": "string",
          "name": "name",
          "type": "string"
        },
        {
          "internalType": "uint256",
          "name": "totalPlots",
          "type": "uint256"
        },
        {
          "internalType": "uint256",
          "name": "amtToSell",
          "type": "uint256"
        },
        {
          "internalType": "enum EstatePool.EstateType",
          "name": "estateType",
          "type": "uint8"
        }
      ],
      "name": "CreateAsset",
      "outputs": [
        {
          "components": [
            {
              "internalType": "string",
              "name": "Name",
              "type": "string"
            },
            {
              "internalType": "uint256",
              "name": "Id",
              "type": "uint256"
            },
            {
              "internalType": "address",
              "name": "Owner",
              "type": "address"
            },
            {
              "internalType": "uint256",
              "name": "TotalPlots",
              "type": "uint256"
            },
            {
              "internalType": "uint256",
              "name": "AmountToBeSold",
              "type": "uint256"
            },
            {
              "internalType": "enum EstatePool.EstateType",
              "name": "Type",
              "type": "uint8"
            }
          ],
          "internalType": "struct EstatePool.TokenData",
          "name": "",
          "type": "tuple"
        }
      ],
      "stateMutability": "nonpayable",
      "type": "function"
    },
    {
      "inputs": [],
      "name": "GetAuctionCounter",
      "outputs": [
        {
          "internalType": "uint256",
          "name": "",
          "type": "uint256"
        }
      ],
      "stateMutability": "view",
      "type": "function"
    },
    {
      "inputs": [
        {
          "internalType": "uint256",
          "name": "tokenId",
          "type": "uint256"
        }
      ],
      "name": "GetAvailableTokenAmount",
      "outputs": [
        {
          "internalType": "uint256",
          "name": "",
          "type": "uint256"
        }
      ],
      "stateMutability": "view",
      "type": "function"
    },
    {
      "inputs": [],
      "name": "GetListedTokens",
      "outputs": [
        {
          "components": [
            {
              "internalType": "string",
              "name": "Name",
              "type": "string"
            },
            {
              "internalType": "uint256",
              "name": "Id",
              "type": "uint256"
            },
            {
              "internalType": "address",
              "name": "Owner",
              "type": "address"
            },
            {
              "internalType": "uint256",
              "name": "TotalPlots",
              "type": "uint256"
            },
            {
              "internalType": "uint256",
              "name": "AmountToBeSold",
              "type": "uint256"
            },
            {
              "internalType": "enum EstatePool.EstateType",
              "name": "Type",
              "type": "uint8"
            }
          ],
          "internalType": "struct EstatePool.TokenData[]",
          "name": "",
          "type": "tuple[]"
        }
      ],
      "stateMutability": "view",
      "type": "function"
    },
    {
      "inputs": [],
      "name": "GetTokenCounter",
      "outputs": [
        {
          "internalType": "uint256",
          "name": "",
          "type": "uint256"
        }
      ],
      "stateMutability": "view",
      "type": "function"
    },
    {
      "inputs": [
        {
          "internalType": "address",
          "name": "user",
          "type": "address"
        }
      ],
      "name": "GetUserTokensData",
      "outputs": [
        {
          "components": [
            {
              "internalType": "uint256",
              "name": "tokenId",
              "type": "uint256"
            },
            {
              "internalType": "string",
              "name": "Name",
              "type": "string"
            },
            {
              "internalType": "string",
              "name": "Description",
              "type": "string"
            },
            {
              "internalType": "uint256",
              "name": "amountOwned",
              "type": "uint256"
            }
          ],
          "internalType": "struct EstatePool.UserTokenData[]",
          "name": "",
          "type": "tuple[]"
        }
      ],
      "stateMutability": "view",
      "type": "function"
    },
    {
      "inputs": [
        {
          "internalType": "uint256",
          "name": "amountToPay",
          "type": "uint256"
        },
        {
          "internalType": "uint256",
          "name": "auctionId",
          "type": "uint256"
        }
      ],
      "name": "PayBid",
      "outputs": [
        {
          "internalType": "bool",
          "name": "",
          "type": "bool"
        }
      ],
      "stateMutability": "payable",
      "type": "function"
    },
    {
      "inputs": [
        {
          "internalType": "uint256",
          "name": "",
          "type": "uint256"
        }
      ],
      "name": "auction",
      "outputs": [
        {
          "internalType": "uint256",
          "name": "TokenId",
          "type": "uint256"
        },
        {
          "internalType": "uint256",
          "name": "AmountToSell",
          "type": "uint256"
        },
        {
          "internalType": "address",
          "name": "Owner",
          "type": "address"
        },
        {
          "internalType": "uint256",
          "name": "auctionId",
          "type": "uint256"
        },
        {
          "internalType": "bool",
          "name": "completed",
          "type": "bool"
        }
      ],
      "stateMutability": "view",
      "type": "function"
    },
    {
      "inputs": [
        {
          "internalType": "uint256",
          "name": "",
          "type": "uint256"
        }
      ],
      "name": "availaibleTokenAmount",
      "outputs": [
        {
          "internalType": "uint256",
          "name": "",
          "type": "uint256"
        }
      ],
      "stateMutability": "view",
      "type": "function"
    },
    {
      "inputs": [
        {
          "internalType": "address",
          "name": "account",
          "type": "address"
        },
        {
          "internalType": "uint256",
          "name": "id",
          "type": "uint256"
        }
      ],
      "name": "balanceOf",
      "outputs": [
        {
          "internalType": "uint256",
          "name": "",
          "type": "uint256"
        }
      ],
      "stateMutability": "view",
      "type": "function"
    },
    {
      "inputs": [
        {
          "internalType": "address[]",
          "name": "accounts",
          "type": "address[]"
        },
        {
          "internalType": "uint256[]",
          "name": "ids",
          "type": "uint256[]"
        }
      ],
      "name": "balanceOfBatch",
      "outputs": [
        {
          "internalType": "uint256[]",
          "name": "",
          "type": "uint256[]"
        }
      ],
      "stateMutability": "view",
      "type": "function"
    },
    {
      "inputs": [
        {
          "internalType": "address",
          "name": "account",
          "type": "address"
        },
        {
          "internalType": "address",
          "name": "operator",
          "type": "address"
        }
      ],
      "name": "isApprovedForAll",
      "outputs": [
        {
          "internalType": "bool",
          "name": "",
          "type": "bool"
        }
      ],
      "stateMutability": "view",
      "type": "function"
    },
    {
      "inputs": [
        {
          "internalType": "address",
          "name": "",
          "type": "address"
        },
        {
          "internalType": "address",
          "name": "",
          "type": "address"
        },
        {
          "internalType": "uint256[]",
          "name": "",
          "type": "uint256[]"
        },
        {
          "internalType": "uint256[]",
          "name": "",
          "type": "uint256[]"
        },
        {
          "internalType": "bytes",
          "name": "",
          "type": "bytes"
        }
      ],
      "name": "onERC1155BatchReceived",
      "outputs": [
        {
          "internalType": "bytes4",
          "name": "",
          "type": "bytes4"
        }
      ],
      "stateMutability": "nonpayable",
      "type": "function"
    },
    {
      "inputs": [
        {
          "internalType": "address",
          "name": "",
          "type": "address"
        },
        {
          "internalType": "address",
          "name": "",
          "type": "address"
        },
        {
          "internalType": "uint256",
          "name": "",
          "type": "uint256"
        },
        {
          "internalType": "uint256",
          "name": "",
          "type": "uint256"
        },
        {
          "internalType": "bytes",
          "name": "",
          "type": "bytes"
        }
      ],
      "name": "onERC1155Received",
      "outputs": [
        {
          "internalType": "bytes4",
          "name": "",
          "type": "bytes4"
        }
      ],
      "stateMutability": "nonpayable",
      "type": "function"
    },
    {
      "inputs": [
        {
          "internalType": "address",
          "name": "from",
          "type": "address"
        },
        {
          "internalType": "address",
          "name": "to",
          "type": "address"
        },
        {
          "internalType": "uint256[]",
          "name": "ids",
          "type": "uint256[]"
        },
        {
          "internalType": "uint256[]",
          "name": "amounts",
          "type": "uint256[]"
        },
        {
          "internalType": "bytes",
          "name": "data",
          "type": "bytes"
        }
      ],
      "name": "safeBatchTransferFrom",
      "outputs": [],
      "stateMutability": "nonpayable",
      "type": "function"
    },
    {
      "inputs": [
        {
          "internalType": "address",
          "name": "from",
          "type": "address"
        },
        {
          "internalType": "address",
          "name": "to",
          "type": "address"
        },
        {
          "internalType": "uint256",
          "name": "id",
          "type": "uint256"
        },
        {
          "internalType": "uint256",
          "name": "amount",
          "type": "uint256"
        },
        {
          "internalType": "bytes",
          "name": "data",
          "type": "bytes"
        }
      ],
      "name": "safeTransferFrom",
      "outputs": [],
      "stateMutability": "nonpayable",
      "type": "function"
    },
    {
      "inputs": [
        {
          "internalType": "address",
          "name": "operator",
          "type": "address"
        },
        {
          "internalType": "bool",
          "name": "approved",
          "type": "bool"
        }
      ],
      "name": "setApprovalForAll",
      "outputs": [],
      "stateMutability": "nonpayable",
      "type": "function"
    },
    {
      "inputs": [
        {
          "internalType": "bytes4",
          "name": "interfaceId",
          "type": "bytes4"
        }
      ],
      "name": "supportsInterface",
      "outputs": [
        {
          "internalType": "bool",
          "name": "",
          "type": "bool"
        }
      ],
      "stateMutability": "view",
      "type": "function"
    },
    {
      "inputs": [
        {
          "internalType": "uint256",
          "name": "",
          "type": "uint256"
        }
      ],
      "name": "tokenDataMapping",
      "outputs": [
        {
          "internalType": "string",
          "name": "Name",
          "type": "string"
        },
        {
          "internalType": "uint256",
          "name": "Id",
          "type": "uint256"
        },
        {
          "internalType": "address",
          "name": "Owner",
          "type": "address"
        },
        {
          "internalType": "uint256",
          "name": "TotalPlots",
          "type": "uint256"
        },
        {
          "internalType": "uint256",
          "name": "AmountToBeSold",
          "type": "uint256"
        },
        {
          "internalType": "enum EstatePool.EstateType",
          "name": "Type",
          "type": "uint8"
        }
      ],
      "stateMutability": "view",
      "type": "function"
    },
    {
      "inputs": [
        {
          "internalType": "uint256",
          "name": "",
          "type": "uint256"
        }
      ],
      "name": "uri",
      "outputs": [
        {
          "internalType": "string",
          "name": "",
          "type": "string"
        }
      ],
      "stateMutability": "view",
      "type": "function"
    },
    {
      "stateMutability": "payable",
      "type": "receive"
    }
  ],
  "transactionHash": "0x82151609329d5dfb068995c752d71caf4f12299466de2442145b37ff895bd1c4",
  "args": [
    "https://packets.vercel.app/api/properties/metadata/{id}"
  ],
  "numDeployments": 1,
  "solcInputHash": "6047fe6448cde79c01db3508ea0b95fa",
  "bytecode": "0x60806040523480156200001157600080fd5b5060405162002e5438038062002e54833981016040819052620000349162000085565b8062000040816200005d565b506200004c816200005d565b5060006004819055600555620002b5565b60026200006b8282620001e9565b5050565b634e487b7160e01b600052604160045260246000fd5b600060208083850312156200009957600080fd5b82516001600160401b0380821115620000b157600080fd5b818501915085601f830112620000c657600080fd5b815181811115620000db57620000db6200006f565b604051601f8201601f19908116603f011681019083821181831017156200010657620001066200006f565b8160405282815288868487010111156200011f57600080fd5b600093505b8284101562000143578484018601518185018701529285019262000124565b600086848301015280965050505050505092915050565b600181811c908216806200016f57607f821691505b6020821081036200019057634e487b7160e01b600052602260045260246000fd5b50919050565b601f821115620001e457600081815260208120601f850160051c81016020861015620001bf5750805b601f850160051c820191505b81811015620001e057828155600101620001cb565b5050505b505050565b81516001600160401b038111156200020557620002056200006f565b6200021d816200021684546200015a565b8462000196565b602080601f8311600181146200025557600084156200023c5750858301515b600019600386901b1c1916600185901b178555620001e0565b600085815260208120601f198616915b82811015620002865788860151825594840194600190910190840162000265565b5085821015620002a55787850151600019600388901b60f8161c191681555b5050505050600190811b01905550565b612b8f80620002c56000396000f3fe6080604052600436106101385760003560e01c8063bc197c81116100ab578063e70572f51161006f578063e70572f514610466578063e985e9c514610493578063f17e9b03146104dc578063f23a6e61146104ef578063f242432a1461051b578063f54b419f1461053b57600080fd5b8063bc197c8114610378578063ca7b4a13146103bd578063d066510a146103df578063d0900e1114610411578063e609b6e11461043957600080fd5b80631e53dff0116100fd5780631e53dff01461029a57806324633568146102c75780632eb2c2d6146102dc5780634e1273f4146102fe5780638ca660a71461032b578063a22cb4651461035857600080fd5b8062fdd58e1461014457806301ffc9a7146101775780630e89341c146101a75780631200617f146101d4578063193970db1461026357600080fd5b3661013f57005b600080fd5b34801561015057600080fd5b5061016461015f366004611f38565b610550565b6040519081526020015b60405180910390f35b34801561018357600080fd5b50610197610192366004611f7b565b6105e9565b604051901515815260200161016e565b3480156101b357600080fd5b506101c76101c2366004611f9f565b6105f4565b60405161016e9190612008565b3480156101e057600080fd5b5061022b6101ef366004611f9f565b600c6020526000908152604090208054600182015460028301546003840154600490940154929391926001600160a01b03909116919060ff1685565b6040805195865260208601949094526001600160a01b039092169284019290925260608301919091521515608082015260a00161016e565b34801561026f57600080fd5b5061028361027e36600461201b565b610688565b60408051921515835260208301919091520161016e565b3480156102a657600080fd5b506101646102b5366004611f9f565b60066020526000908152604090205481565b3480156102d357600080fd5b50600454610164565b3480156102e857600080fd5b506102fc6102f7366004612193565b61078a565b005b34801561030a57600080fd5b5061031e61031936600461223d565b6107d6565b60405161016e9190612343565b34801561033757600080fd5b50610164610346366004611f9f565b60009081526006602052604090205490565b34801561036457600080fd5b506102fc610373366004612356565b610900565b34801561038457600080fd5b506103a4610393366004612193565b63bc197c8160e01b95945050505050565b6040516001600160e01b0319909116815260200161016e565b3480156103c957600080fd5b506103d261090f565b60405161016e9190612423565b3480156103eb57600080fd5b506103ff6103fa366004611f9f565b610a64565b60405161016e96959493929190612485565b61042461041f3660046124d6565b610b2e565b6040805192835260208301919091520161016e565b34801561044557600080fd5b50610459610454366004612502565b610f7e565b60405161016e919061257d565b34801561047257600080fd5b50610486610481366004612590565b6111e1565b60405161016e91906125ab565b34801561049f57600080fd5b506101976104ae366004612647565b6001600160a01b03918216600090815260016020908152604080832093909416825291909152205460ff1690565b6101976104ea36600461201b565b611462565b3480156104fb57600080fd5b506103a461050a36600461267a565b63f23a6e6160e01b95945050505050565b34801561052757600080fd5b506102fc61053636600461267a565b611692565b34801561054757600080fd5b50600554610164565b60006001600160a01b0383166105c05760405162461bcd60e51b815260206004820152602a60248201527f455243313135353a2061646472657373207a65726f206973206e6f742061207660448201526930b634b21037bbb732b960b11b60648201526084015b60405180910390fd5b506000818152602081815260408083206001600160a01b03861684529091529020545b92915050565b60006105e3826116d7565b606060028054610603906126df565b80601f016020809104026020016040519081016040528092919081815260200182805461062f906126df565b801561067c5780601f106106515761010080835404028352916020019161067c565b820191906000526020600020905b81548152906001019060200180831161065f57829003601f168201915b50505050509050919050565b600080600061069660055490565b6106a190600161272f565b90506106ca3330878760405180604001604052806002815260200161060f60f31b8152506116fc565b6040805160a08101825286815260208082018781523383850181815260608501878152600060808701818152898252600c875290889020965187559351600187015590516002860180546001600160a01b0319166001600160a01b0390921691909117905551600385015590516004909301805460ff191693151593909317909255915186815287927f4560b4b4d2eec0d9c2feb420083427dbdb8371b8df7fc5471791ebe492622f69910160405180910390a360019590945092505050565b6001600160a01b0385163314806107a657506107a685336104ae565b6107c25760405162461bcd60e51b81526004016105b790612742565b6107cf8585858585611826565b5050505050565b6060815183511461083b5760405162461bcd60e51b815260206004820152602960248201527f455243313135353a206163636f756e747320616e6420696473206c656e677468604482015268040dad2e6dac2e8c6d60bb1b60648201526084016105b7565b6000835167ffffffffffffffff8111156108575761085761203d565b604051908082528060200260200182016040528015610880578160200160208202803683370190505b50905060005b84518110156108f8576108cb8582815181106108a4576108a4612790565b60200260200101518583815181106108be576108be612790565b6020026020010151610550565b8282815181106108dd576108dd612790565b60209081029190910101526108f1816127a6565b9050610886565b509392505050565b61090b338383611a03565b5050565b60606003805480602002602001604051908101604052809291908181526020016000905b82821015610a5b57838290600052602060002090600602016040518060c0016040529081600082018054610966906126df565b80601f0160208091040260200160405190810160405280929190818152602001828054610992906126df565b80156109df5780601f106109b4576101008083540402835291602001916109df565b820191906000526020600020905b8154815290600101906020018083116109c257829003601f168201915b50505091835250506001820154602082015260028201546001600160a01b03166040820152600380830154606083015260048301546080830152600583015460a09092019160ff1690811115610a3757610a37612392565b6003811115610a4857610a48612392565b8152505081526020019060010190610933565b50505050905090565b600b60205260009081526040902080548190610a7f906126df565b80601f0160208091040260200160405190810160405280929190818152602001828054610aab906126df565b8015610af85780601f10610acd57610100808354040283529160200191610af8565b820191906000526020600020905b815481529060010190602001808311610adb57829003601f168201915b5050506001840154600285015460038601546004870154600590970154959692956001600160a01b039092169450925060ff1686565b60008034831015610b945760405162461bcd60e51b815260206004820152602a60248201527f54686520616d6f756e742073656e74206973206e6f7420656e6f75676820666f6044820152697220707572636861736560b01b60648201526084016105b7565b600085815260076020526040808220815160c08101909252805482908290610bbb906126df565b80601f0160208091040260200160405190810160405280929190818152602001828054610be7906126df565b8015610c345780601f10610c0957610100808354040283529160200191610c34565b820191906000526020600020905b815481529060010190602001808311610c1757829003601f168201915b50505091835250506001820154602082015260028201546001600160a01b03166040820152600380830154606083015260048301546080830152600583015460a09092019160ff1690811115610c8c57610c8c612392565b6003811115610c9d57610c9d612392565b90525060408101519091506001600160a01b03163303610cff5760405162461bcd60e51b815260206004820181905260248201527f4f776e65722043616e6e6f7420627579206c69737465642070726f706572747960448201526064016105b7565b60008681526006602052604090205480861115610d745760405162461bcd60e51b815260206004820152602d60248201527f507572636861736520616d6f756e74206578636565647320746865206176616960448201526c1b1a58589b1948185b5bdd5b9d609a1b60648201526084016105b7565b60408083015190516000906001600160a01b0383169034908381818185875af1925050503d8060008114610dc4576040519150601f19603f3d011682016040523d82523d6000602084013e610dc9565b606091505b5050905080610e105760405162461bcd60e51b8152602060048201526013602482015272115512081d1c985b9cd9995c8819985a5b1959606a1b60448201526064016105b7565b610e3782338b8b60405180604001604052806002815260200161060f60f31b8152506116fc565b600089815260066020526040902054610e519089906127bf565b60008a815260066020908152604080832093909355338252600890522054610e7a90349061272f565b33600090815260086020908152604080832093909355600a8152918120805460018101825590825291902085518692600602909101908190610ebc908261281d565b506020820151816001015560408201518160020160006101000a8154816001600160a01b0302191690836001600160a01b03160217905550606082015181600301556080820151816004015560a08201518160050160006101000a81548160ff02191690836003811115610f3257610f32612392565b0217905550506040518a915033906001600160a01b038516907f9b24bd0884170cbce51f9f00df6b3f9aed2231e4086241d1d04687b42afdf7b990600090a45096979596505050505050565b610f86611ecd565b600454610f9490600161272f565b60048190555060006040518060c001604052808781526020016004548152602001336001600160a01b03168152602001868152602001858152602001846003811115610fe257610fe2612392565b8152509050611004336004548760405180602001604052806000815250611ae3565b60038054600181018255600091909152815182916006027fc2575a0e9e593c00f959f8c92f12db2869c3395a3b0502d05e2516446f71f85b0190819061104a908261281d565b506020820151816001015560408201518160020160006101000a8154816001600160a01b0302191690836001600160a01b03160217905550606082015181600301556080820151816004015560a08201518160050160006101000a81548160ff021916908360038111156110c0576110c0612392565b021790555050600480546000908152600660209081526040808320899055925482526007905220825183925081906110f8908261281d565b506020820151816001015560408201518160020160006101000a8154816001600160a01b0302191690836001600160a01b03160217905550606082015181600301556080820151816004015560a08201518160050160006101000a81548160ff0219169083600381111561116e5761116e612392565b021790555090505061118233306001611a03565b6020810151815160405161119691906128dd565b604051809103902082604001516001600160a01b03167f62099b0d51c89afa8a30ef4da626ca4d1257a1203645ed1b5781cfca1badcdb360405160405180910390a495945050505050565b6001600160a01b0381166000908152600a60209081526040808320805482518185028101850190935280835260609493849084015b8282101561133e57838290600052602060002090600602016040518060c0016040529081600082018054611249906126df565b80601f0160208091040260200160405190810160405280929190818152602001828054611275906126df565b80156112c25780601f10611297576101008083540402835291602001916112c2565b820191906000526020600020905b8154815290600101906020018083116112a557829003601f168201915b50505091835250506001820154602082015260028201546001600160a01b03166040820152600380830154606083015260048301546080830152600583015460a09092019160ff169081111561131a5761131a612392565b600381111561132b5761132b612392565b8152505081526020019060010190611216565b5050505090506000815167ffffffffffffffff8111156113605761136061203d565b6040519080825280602002602001820160405280156113bc57816020015b6113a96040518060800160405280600081526020016060815260200160608152602001600081525090565b81526020019060019003908161137e5790505b5090506000805b83518110156114585760008482815181106113e0576113e0612790565b602002602001015190506113f8878260200151610550565b925060405180608001604052808260200151815260200182600001518152602001826000015181526020018481525084838151811061143957611439612790565b6020026020010181905250508080611450906127a6565b9150506113c3565b5090949350505050565b6000823410156114a55760405162461bcd60e51b815260206004820152600e60248201526d125b9d985b1a5908105b5bdd5b9d60921b60448201526064016105b7565b6000828152600c6020908152604091829020825160a0810184528154815260018201549281019290925260028101546001600160a01b0316928201929092526003820154606082015260049091015460ff16158015608083015261154b5760405162461bcd60e51b815260206004820152601c60248201527f41756374696f6e20697320616c726561647920636f6d706c657465640000000060448201526064016105b7565b6020810151604080830151835191519091906000906001600160a01b0384169034908381818185875af1925050503d80600081146115a5576040519150601f19603f3d011682016040523d82523d6000602084013e6115aa565b606091505b50509050806115f35760405162461bcd60e51b8152602060048201526015602482015274457468207472616e73616374696f6e206661696c7360581b60448201526064016105b7565b61161a3033848760405180604001604052806002815260200161060f60f31b8152506116fc565b50506001608084018181526000968752600c6020908152604097889020865181559086015181840155968501516002880180546001600160a01b0319166001600160a01b03909216919091179055606090940151600387015592516004909501805460ff191695151595909517909455509392505050565b6001600160a01b0385163314806116ae57506116ae85336104ae565b6116ca5760405162461bcd60e51b81526004016105b790612742565b6107cf85858585856116fc565b60006001600160e01b03198216630271189760e51b14806105e357506105e382611bf7565b6001600160a01b0384166117225760405162461bcd60e51b81526004016105b7906128f9565b33600061172e85611c1c565b9050600061173b85611c1c565b90506000868152602081815260408083206001600160a01b038c1684529091529020548581101561177e5760405162461bcd60e51b81526004016105b79061293e565b6000878152602081815260408083206001600160a01b038d8116855292528083208985039055908a168252812080548892906117bb90849061272f565b909155505060408051888152602081018890526001600160a01b03808b16928c821692918816917fc3d58168c5ae7397731d063d5bbf3d657854427343f4c083240f7aacaa2d0f62910160405180910390a461181b848a8a8a8a8a611c67565b505050505050505050565b81518351146118885760405162461bcd60e51b815260206004820152602860248201527f455243313135353a2069647320616e6420616d6f756e7473206c656e677468206044820152670dad2e6dac2e8c6d60c31b60648201526084016105b7565b6001600160a01b0384166118ae5760405162461bcd60e51b81526004016105b7906128f9565b3360005b84518110156119955760008582815181106118cf576118cf612790565b6020026020010151905060008583815181106118ed576118ed612790565b602090810291909101810151600084815280835260408082206001600160a01b038e16835290935291909120549091508181101561193d5760405162461bcd60e51b81526004016105b79061293e565b6000838152602081815260408083206001600160a01b038e8116855292528083208585039055908b1682528120805484929061197a90849061272f565b925050819055505050508061198e906127a6565b90506118b2565b50846001600160a01b0316866001600160a01b0316826001600160a01b03167f4a39dc06d4c0dbc64b70af90fd698a233a518aa5d07e595d983b8c0526c8f7fb87876040516119e5929190612988565b60405180910390a46119fb818787878787611dc2565b505050505050565b816001600160a01b0316836001600160a01b031603611a765760405162461bcd60e51b815260206004820152602960248201527f455243313135353a2073657474696e6720617070726f76616c20737461747573604482015268103337b91039b2b63360b91b60648201526084016105b7565b6001600160a01b03838116600081815260016020908152604080832094871680845294825291829020805460ff191686151590811790915591519182527f17307eab39ab6107e8899845ad3d59bd9653f200f220920489ca2b5937696c31910160405180910390a3505050565b6001600160a01b038416611b435760405162461bcd60e51b815260206004820152602160248201527f455243313135353a206d696e7420746f20746865207a65726f206164647265736044820152607360f81b60648201526084016105b7565b336000611b4f85611c1c565b90506000611b5c85611c1c565b90506000868152602081815260408083206001600160a01b038b16845290915281208054879290611b8e90849061272f565b909155505060408051878152602081018790526001600160a01b03808a1692600092918716917fc3d58168c5ae7397731d063d5bbf3d657854427343f4c083240f7aacaa2d0f62910160405180910390a4611bee83600089898989611c67565b50505050505050565b60006001600160e01b03198216630271189760e51b14806105e357506105e382611e7d565b60408051600180825281830190925260609160009190602080830190803683370190505090508281600081518110611c5657611c56612790565b602090810291909101015292915050565b6001600160a01b0384163b156119fb5760405163f23a6e6160e01b81526001600160a01b0385169063f23a6e6190611cab90899089908890889088906004016129b6565b6020604051808303816000875af1925050508015611ce6575060408051601f3d908101601f19168201909252611ce3918101906129f0565b60015b611d9257611cf2612a0d565b806308c379a003611d2b5750611d06612a29565b80611d115750611d2d565b8060405162461bcd60e51b81526004016105b79190612008565b505b60405162461bcd60e51b815260206004820152603460248201527f455243313135353a207472616e7366657220746f206e6f6e2d455243313135356044820152732932b1b2b4bb32b91034b6b83632b6b2b73a32b960611b60648201526084016105b7565b6001600160e01b0319811663f23a6e6160e01b14611bee5760405162461bcd60e51b81526004016105b790612ab3565b6001600160a01b0384163b156119fb5760405163bc197c8160e01b81526001600160a01b0385169063bc197c8190611e069089908990889088908890600401612afb565b6020604051808303816000875af1925050508015611e41575060408051601f3d908101601f19168201909252611e3e918101906129f0565b60015b611e4d57611cf2612a0d565b6001600160e01b0319811663bc197c8160e01b14611bee5760405162461bcd60e51b81526004016105b790612ab3565b60006001600160e01b03198216636cdb3d1360e11b1480611eae57506001600160e01b031982166303a24d0760e21b145b806105e357506301ffc9a760e01b6001600160e01b03198316146105e3565b6040518060c00160405280606081526020016000815260200160006001600160a01b03168152602001600081526020016000815260200160006003811115611f1757611f17612392565b905290565b80356001600160a01b0381168114611f3357600080fd5b919050565b60008060408385031215611f4b57600080fd5b611f5483611f1c565b946020939093013593505050565b6001600160e01b031981168114611f7857600080fd5b50565b600060208284031215611f8d57600080fd5b8135611f9881611f62565b9392505050565b600060208284031215611fb157600080fd5b5035919050565b60005b83811015611fd3578181015183820152602001611fbb565b50506000910152565b60008151808452611ff4816020860160208601611fb8565b601f01601f19169290920160200192915050565b602081526000611f986020830184611fdc565b6000806040838503121561202e57600080fd5b50508035926020909101359150565b634e487b7160e01b600052604160045260246000fd5b601f8201601f1916810167ffffffffffffffff811182821017156120795761207961203d565b6040525050565b600067ffffffffffffffff82111561209a5761209a61203d565b5060051b60200190565b600082601f8301126120b557600080fd5b813560206120c282612080565b6040516120cf8282612053565b83815260059390931b85018201928281019150868411156120ef57600080fd5b8286015b8481101561210a57803583529183019183016120f3565b509695505050505050565b600067ffffffffffffffff83111561212f5761212f61203d565b604051612146601f8501601f191660200182612053565b80915083815284848401111561215b57600080fd5b83836020830137600060208583010152509392505050565b600082601f83011261218457600080fd5b611f9883833560208501612115565b600080600080600060a086880312156121ab57600080fd5b6121b486611f1c565b94506121c260208701611f1c565b9350604086013567ffffffffffffffff808211156121df57600080fd5b6121eb89838a016120a4565b9450606088013591508082111561220157600080fd5b61220d89838a016120a4565b9350608088013591508082111561222357600080fd5b5061223088828901612173565b9150509295509295909350565b6000806040838503121561225057600080fd5b823567ffffffffffffffff8082111561226857600080fd5b818501915085601f83011261227c57600080fd5b8135602061228982612080565b6040516122968282612053565b83815260059390931b85018201928281019150898411156122b657600080fd5b948201945b838610156122db576122cc86611f1c565b825294820194908201906122bb565b965050860135925050808211156122f157600080fd5b506122fe858286016120a4565b9150509250929050565b600081518084526020808501945080840160005b838110156123385781518752958201959082019060010161231c565b509495945050505050565b602081526000611f986020830184612308565b6000806040838503121561236957600080fd5b61237283611f1c565b91506020830135801515811461238757600080fd5b809150509250929050565b634e487b7160e01b600052602160045260246000fd5b600481106123c657634e487b7160e01b600052602160045260246000fd5b9052565b6000815160c084526123df60c0850182611fdc565b90506020830151602085015260018060a01b036040840151166040850152606083015160608501526080830151608085015260a08301516108f860a08601826123a8565b6000602080830181845280855180835260408601915060408160051b870101925083870160005b8281101561247857603f198886030184526124668583516123ca565b9450928501929085019060010161244a565b5092979650505050505050565b60c08152600061249860c0830189611fdc565b602083018890526001600160a01b0387166040840152606083018690526080830185905290506124cb60a08301846123a8565b979650505050505050565b6000806000606084860312156124eb57600080fd5b505081359360208301359350604090920135919050565b6000806000806080858703121561251857600080fd5b843567ffffffffffffffff81111561252f57600080fd5b8501601f8101871361254057600080fd5b61254f87823560208401612115565b945050602085013592506040850135915060608501356004811061257257600080fd5b939692955090935050565b602081526000611f9860208301846123ca565b6000602082840312156125a257600080fd5b611f9882611f1c565b60006020808301818452808551808352604092508286019150828160051b87010184880160005b8381101561263957603f19898403018552815160808151855288820151818a87015261260082870182611fdc565b91505087820151858203898701526126188282611fdc565b606093840151969093019590955250948701949250908601906001016125d2565b509098975050505050505050565b6000806040838503121561265a57600080fd5b61266383611f1c565b915061267160208401611f1c565b90509250929050565b600080600080600060a0868803121561269257600080fd5b61269b86611f1c565b94506126a960208701611f1c565b93506040860135925060608601359150608086013567ffffffffffffffff8111156126d357600080fd5b61223088828901612173565b600181811c908216806126f357607f821691505b60208210810361271357634e487b7160e01b600052602260045260246000fd5b50919050565b634e487b7160e01b600052601160045260246000fd5b808201808211156105e3576105e3612719565b6020808252602e908201527f455243313135353a2063616c6c6572206973206e6f7420746f6b656e206f776e60408201526d195c881bdc88185c1c1c9bdd995960921b606082015260800190565b634e487b7160e01b600052603260045260246000fd5b6000600182016127b8576127b8612719565b5060010190565b818103818111156105e3576105e3612719565b601f82111561281857600081815260208120601f850160051c810160208610156127f95750805b601f850160051c820191505b818110156119fb57828155600101612805565b505050565b815167ffffffffffffffff8111156128375761283761203d565b61284b8161284584546126df565b846127d2565b602080601f83116001811461288057600084156128685750858301515b600019600386901b1c1916600185901b1785556119fb565b600085815260208120601f198616915b828110156128af57888601518255948401946001909101908401612890565b50858210156128cd5787850151600019600388901b60f8161c191681555b5050505050600190811b01905550565b600082516128ef818460208701611fb8565b9190910192915050565b60208082526025908201527f455243313135353a207472616e7366657220746f20746865207a65726f206164604082015264647265737360d81b606082015260800190565b6020808252602a908201527f455243313135353a20696e73756666696369656e742062616c616e636520666f60408201526939103a3930b739b332b960b11b606082015260800190565b60408152600061299b6040830185612308565b82810360208401526129ad8185612308565b95945050505050565b6001600160a01b03868116825285166020820152604081018490526060810183905260a0608082018190526000906124cb90830184611fdc565b600060208284031215612a0257600080fd5b8151611f9881611f62565b600060033d1115612a265760046000803e5060005160e01c5b90565b600060443d1015612a375790565b6040516003193d81016004833e81513d67ffffffffffffffff8160248401118184111715612a6757505050505090565b8285019150815181811115612a7f5750505050505090565b843d8701016020828501011115612a995750505050505090565b612aa860208286010187612053565b509095945050505050565b60208082526028908201527f455243313135353a204552433131353552656365697665722072656a656374656040820152676420746f6b656e7360c01b606082015260800190565b6001600160a01b0386811682528516602082015260a060408201819052600090612b2790830186612308565b8281036060840152612b398186612308565b90508281036080840152612b4d8185611fdc565b9897505050505050505056fea26469706673582212205593553e3df9b8a3c35ab587ae7399c520bbcec71855405ea0d07dacbd9baafc64736f6c63430008110033",
  "devdoc": {
    "kind": "dev",
    "methods": {
      "BuyPlot(uint256,uint256,uint256)": {
        "params": {
          "expectedPay": "This is the expected amount the user should send to the smart contract",
          "purchaseAmt": "this is the amount of uints that the user wants to purchase",
          "tokenId": "this is the Id of the token on the ListedToken array"
        },
        "returns": {
          "Id": "this holds the return value of the token that was bought",
          "amountBought": "this holds the value of the token that was successfully bought"
        }
      },
      "CreateAsset(string,uint256,uint256,uint8)": {
        "params": {
          "amtToSell": "Amount willing to see to investors",
          "estateType": "Estate Type enum",
          "name": "The name of asset",
          "totalPlots": "Total availiable plots"
        }
      },
      "balanceOf(address,uint256)": {
        "details": "See {IERC1155-balanceOf}. Requirements: - `account` cannot be the zero address."
      },
      "balanceOfBatch(address[],uint256[])": {
        "details": "See {IERC1155-balanceOfBatch}. Requirements: - `accounts` and `ids` must have the same length."
      },
      "isApprovedForAll(address,address)": {
        "details": "See {IERC1155-isApprovedForAll}."
      },
      "safeBatchTransferFrom(address,address,uint256[],uint256[],bytes)": {
        "details": "See {IERC1155-safeBatchTransferFrom}."
      },
      "safeTransferFrom(address,address,uint256,uint256,bytes)": {
        "details": "See {IERC1155-safeTransferFrom}."
      },
      "setApprovalForAll(address,bool)": {
        "details": "See {IERC1155-setApprovalForAll}."
      },
      "uri(uint256)": {
        "details": "See {IERC1155MetadataURI-uri}. This implementation returns the same URI for *all* token types. It relies on the token type ID substitution mechanism https://eips.ethereum.org/EIPS/eip-1155#metadata[defined in the EIP]. Clients calling this function must replace the `\\{id\\}` substring with the actual token type ID."
      }
    },
    "stateVariables": {
      "auction": {
        "details": "This mapping is for tracking Auctions "
      },
      "availaibleTokenAmount": {
        "details": "mapping of tokenId to amount sold"
      },
      "tokenDataMapping": {
        "details": "This mapping is the mapping of tokenId to TokenData"
      },
      "tokenMapping": {
        "details": "Mapping for tokenId -> tokendata"
      },
      "totalYields": {
        "details": "This is the user's total yields gained"
      },
      "userTokens": {
        "details": "This ties all the users to their respective tokens"
      },
      "userTvl": {
        "details": "This refers to the user's total value bought"
      }
    },
    "version": 1
  },
  "userdoc": {
    "kind": "user",
    "methods": {
      "CreateAsset(string,uint256,uint256,uint8)": {
        "notice": "function to list and provide tokens of an asset"
      }
    },
    "version": 1
  },
  "storageLayout": {
    "storage": [
      {
        "astId": 25,
        "contract": "contracts/EstatePool.sol:EstatePool",
        "label": "_balances",
        "offset": 0,
        "slot": "0",
        "type": "t_mapping(t_uint256,t_mapping(t_address,t_uint256))"
      },
      {
        "astId": 31,
        "contract": "contracts/EstatePool.sol:EstatePool",
        "label": "_operatorApprovals",
        "offset": 0,
        "slot": "1",
        "type": "t_mapping(t_address,t_mapping(t_address,t_bool))"
      },
      {
        "astId": 33,
        "contract": "contracts/EstatePool.sol:EstatePool",
        "label": "_uri",
        "offset": 0,
        "slot": "2",
        "type": "t_string_storage"
      },
      {
        "astId": 1928,
        "contract": "contracts/EstatePool.sol:EstatePool",
        "label": "ListedTokens",
        "offset": 0,
        "slot": "3",
        "type": "t_array(t_struct(TokenData)2048_storage)dyn_storage"
      },
      {
        "astId": 1930,
        "contract": "contracts/EstatePool.sol:EstatePool",
        "label": "tokenCounter",
        "offset": 0,
        "slot": "4",
        "type": "t_uint256"
      },
      {
        "astId": 1932,
        "contract": "contracts/EstatePool.sol:EstatePool",
        "label": "auctionCounter",
        "offset": 0,
        "slot": "5",
        "type": "t_uint256"
      },
      {
        "astId": 1937,
        "contract": "contracts/EstatePool.sol:EstatePool",
        "label": "availaibleTokenAmount",
        "offset": 0,
        "slot": "6",
        "type": "t_mapping(t_uint256,t_uint256)"
      },
      {
        "astId": 1943,
        "contract": "contracts/EstatePool.sol:EstatePool",
        "label": "tokenMapping",
        "offset": 0,
        "slot": "7",
        "type": "t_mapping(t_uint256,t_struct(TokenData)2048_storage)"
      },
      {
        "astId": 1948,
        "contract": "contracts/EstatePool.sol:EstatePool",
        "label": "userTvl",
        "offset": 0,
        "slot": "8",
        "type": "t_mapping(t_address,t_uint256)"
      },
      {
        "astId": 1953,
        "contract": "contracts/EstatePool.sol:EstatePool",
        "label": "totalYields",
        "offset": 0,
        "slot": "9",
        "type": "t_mapping(t_address,t_uint256)"
      },
      {
        "astId": 1960,
        "contract": "contracts/EstatePool.sol:EstatePool",
        "label": "userTokens",
        "offset": 0,
        "slot": "10",
        "type": "t_mapping(t_address,t_array(t_struct(TokenData)2048_storage)dyn_storage)"
      },
      {
        "astId": 1966,
        "contract": "contracts/EstatePool.sol:EstatePool",
        "label": "tokenDataMapping",
        "offset": 0,
        "slot": "11",
        "type": "t_mapping(t_uint256,t_struct(TokenData)2048_storage)"
      },
      {
        "astId": 1972,
        "contract": "contracts/EstatePool.sol:EstatePool",
        "label": "auction",
        "offset": 0,
        "slot": "12",
        "type": "t_mapping(t_uint256,t_struct(AuctionData)2068_storage)"
      }
    ],
    "types": {
      "t_address": {
        "encoding": "inplace",
        "label": "address",
        "numberOfBytes": "20"
      },
      "t_array(t_struct(TokenData)2048_storage)dyn_storage": {
        "base": "t_struct(TokenData)2048_storage",
        "encoding": "dynamic_array",
        "label": "struct EstatePool.TokenData[]",
        "numberOfBytes": "32"
      },
      "t_bool": {
        "encoding": "inplace",
        "label": "bool",
        "numberOfBytes": "1"
      },
      "t_enum(EstateType)2073": {
        "encoding": "inplace",
        "label": "enum EstatePool.EstateType",
        "numberOfBytes": "1"
      },
      "t_mapping(t_address,t_array(t_struct(TokenData)2048_storage)dyn_storage)": {
        "encoding": "mapping",
        "key": "t_address",
        "label": "mapping(address => struct EstatePool.TokenData[])",
        "numberOfBytes": "32",
        "value": "t_array(t_struct(TokenData)2048_storage)dyn_storage"
      },
      "t_mapping(t_address,t_bool)": {
        "encoding": "mapping",
        "key": "t_address",
        "label": "mapping(address => bool)",
        "numberOfBytes": "32",
        "value": "t_bool"
      },
      "t_mapping(t_address,t_mapping(t_address,t_bool))": {
        "encoding": "mapping",
        "key": "t_address",
        "label": "mapping(address => mapping(address => bool))",
        "numberOfBytes": "32",
        "value": "t_mapping(t_address,t_bool)"
      },
      "t_mapping(t_address,t_uint256)": {
        "encoding": "mapping",
        "key": "t_address",
        "label": "mapping(address => uint256)",
        "numberOfBytes": "32",
        "value": "t_uint256"
      },
      "t_mapping(t_uint256,t_mapping(t_address,t_uint256))": {
        "encoding": "mapping",
        "key": "t_uint256",
        "label": "mapping(uint256 => mapping(address => uint256))",
        "numberOfBytes": "32",
        "value": "t_mapping(t_address,t_uint256)"
      },
      "t_mapping(t_uint256,t_struct(AuctionData)2068_storage)": {
        "encoding": "mapping",
        "key": "t_uint256",
        "label": "mapping(uint256 => struct EstatePool.AuctionData)",
        "numberOfBytes": "32",
        "value": "t_struct(AuctionData)2068_storage"
      },
      "t_mapping(t_uint256,t_struct(TokenData)2048_storage)": {
        "encoding": "mapping",
        "key": "t_uint256",
        "label": "mapping(uint256 => struct EstatePool.TokenData)",
        "numberOfBytes": "32",
        "value": "t_struct(TokenData)2048_storage"
      },
      "t_mapping(t_uint256,t_uint256)": {
        "encoding": "mapping",
        "key": "t_uint256",
        "label": "mapping(uint256 => uint256)",
        "numberOfBytes": "32",
        "value": "t_uint256"
      },
      "t_string_storage": {
        "encoding": "bytes",
        "label": "string",
        "numberOfBytes": "32"
      },
      "t_struct(AuctionData)2068_storage": {
        "encoding": "inplace",
        "label": "struct EstatePool.AuctionData",
        "members": [
          {
            "astId": 2059,
            "contract": "contracts/EstatePool.sol:EstatePool",
            "label": "TokenId",
            "offset": 0,
            "slot": "0",
            "type": "t_uint256"
          },
          {
            "astId": 2061,
            "contract": "contracts/EstatePool.sol:EstatePool",
            "label": "AmountToSell",
            "offset": 0,
            "slot": "1",
            "type": "t_uint256"
          },
          {
            "astId": 2063,
            "contract": "contracts/EstatePool.sol:EstatePool",
            "label": "Owner",
            "offset": 0,
            "slot": "2",
            "type": "t_address"
          },
          {
            "astId": 2065,
            "contract": "contracts/EstatePool.sol:EstatePool",
            "label": "auctionId",
            "offset": 0,
            "slot": "3",
            "type": "t_uint256"
          },
          {
            "astId": 2067,
            "contract": "contracts/EstatePool.sol:EstatePool",
            "label": "completed",
            "offset": 0,
            "slot": "4",
            "type": "t_bool"
          }
        ],
        "numberOfBytes": "160"
      },
      "t_struct(TokenData)2048_storage": {
        "encoding": "inplace",
        "label": "struct EstatePool.TokenData",
        "members": [
          {
            "astId": 2036,
            "contract": "contracts/EstatePool.sol:EstatePool",
            "label": "Name",
            "offset": 0,
            "slot": "0",
            "type": "t_string_storage"
          },
          {
            "astId": 2038,
            "contract": "contracts/EstatePool.sol:EstatePool",
            "label": "Id",
            "offset": 0,
            "slot": "1",
            "type": "t_uint256"
          },
          {
            "astId": 2040,
            "contract": "contracts/EstatePool.sol:EstatePool",
            "label": "Owner",
            "offset": 0,
            "slot": "2",
            "type": "t_address"
          },
          {
            "astId": 2042,
            "contract": "contracts/EstatePool.sol:EstatePool",
            "label": "TotalPlots",
            "offset": 0,
            "slot": "3",
            "type": "t_uint256"
          },
          {
            "astId": 2044,
            "contract": "contracts/EstatePool.sol:EstatePool",
            "label": "AmountToBeSold",
            "offset": 0,
            "slot": "4",
            "type": "t_uint256"
          },
          {
            "astId": 2047,
            "contract": "contracts/EstatePool.sol:EstatePool",
            "label": "Type",
            "offset": 0,
            "slot": "5",
            "type": "t_enum(EstateType)2073"
          }
        ],
        "numberOfBytes": "192"
      },
      "t_uint256": {
        "encoding": "inplace",
        "label": "uint256",
        "numberOfBytes": "32"
      }
    }
  }
}